{
  "abi": [
    {
      "type": "constructor",
      "inputs": [
        {
          "name": "_notaryAddress",
          "type": "address",
          "internalType": "address"
        }
      ],
      "stateMutability": "nonpayable"
    },
    {
      "type": "function",
      "name": "BN254_MODULUS",
      "inputs": [],
      "outputs": [
        {
          "name": "",
          "type": "uint256",
          "internalType": "uint256"
        }
      ],
      "stateMutability": "view"
    },
    {
      "type": "function",
      "name": "addNotary",
      "inputs": [
        {
          "name": "_notaryAddress",
          "type": "address",
          "internalType": "address"
        }
      ],
      "outputs": [],
      "stateMutability": "nonpayable"
    },
    {
      "type": "function",
      "name": "digests",
      "inputs": [
        {
          "name": "",
          "type": "address",
          "internalType": "address"
        }
      ],
      "outputs": [
        {
          "name": "",
          "type": "bytes32",
          "internalType": "bytes32"
        }
      ],
      "stateMutability": "view"
    },
    {
      "type": "function",
      "name": "isNotary",
      "inputs": [
        {
          "name": "",
          "type": "address",
          "internalType": "address"
        }
      ],
      "outputs": [
        {
          "name": "",
          "type": "bool",
          "internalType": "bool"
        }
      ],
      "stateMutability": "view"
    },
    {
      "type": "function",
      "name": "owner",
      "inputs": [],
      "outputs": [
        {
          "name": "",
          "type": "address",
          "internalType": "address"
        }
      ],
      "stateMutability": "view"
    },
    {
      "type": "function",
      "name": "removeNotary",
      "inputs": [
        {
          "name": "_notaryAddress",
          "type": "address",
          "internalType": "address"
        }
      ],
      "outputs": [],
      "stateMutability": "nonpayable"
    },
    {
      "type": "function",
      "name": "renounceOwnership",
      "inputs": [],
      "outputs": [],
      "stateMutability": "nonpayable"
    },
    {
      "type": "function",
      "name": "transferOwnership",
      "inputs": [
        {
          "name": "newOwner",
          "type": "address",
          "internalType": "address"
        }
      ],
      "outputs": [],
      "stateMutability": "nonpayable"
    },
    {
      "type": "function",
      "name": "verifyNotarySignature",
      "inputs": [
        {
          "name": "digest",
          "type": "bytes32",
          "internalType": "bytes32"
        },
        {
          "name": "v",
          "type": "uint8",
          "internalType": "uint8"
        },
        {
          "name": "r",
          "type": "bytes32",
          "internalType": "bytes32"
        },
        {
          "name": "s",
          "type": "bytes32",
          "internalType": "bytes32"
        },
        {
          "name": "signer",
          "type": "address",
          "internalType": "address"
        },
        {
          "name": "manifest",
          "type": "bytes32",
          "internalType": "bytes32"
        },
        {
          "name": "value",
          "type": "bytes32",
          "internalType": "bytes32"
        }
      ],
      "outputs": [
        {
          "name": "",
          "type": "bool",
          "internalType": "bool"
        }
      ],
      "stateMutability": "nonpayable"
    },
    {
      "type": "event",
      "name": "OwnershipTransferred",
      "inputs": [
        {
          "name": "previousOwner",
          "type": "address",
          "indexed": true,
          "internalType": "address"
        },
        {
          "name": "newOwner",
          "type": "address",
          "indexed": true,
          "internalType": "address"
        }
      ],
      "anonymous": false
    },
    {
      "type": "error",
      "name": "InvalidDigest",
      "inputs": []
    },
    {
      "type": "error",
      "name": "InvalidNotary",
      "inputs": []
    },
    {
      "type": "error",
      "name": "InvalidSignature",
      "inputs": []
    },
    {
      "type": "error",
      "name": "InvalidSignatureLength",
      "inputs": []
    },
    {
      "type": "error",
      "name": "OwnableInvalidOwner",
      "inputs": [
        {
          "name": "owner",
          "type": "address",
          "internalType": "address"
        }
      ]
    },
    {
      "type": "error",
      "name": "OwnableUnauthorizedAccount",
      "inputs": [
        {
          "name": "account",
          "type": "address",
          "internalType": "address"
        }
      ]
    }
  ],
  "bytecode": {
    "object": "0x608060405234801561000f575f80fd5b5060405162000c8638038062000c868339818101604052810190610033919061022d565b335f73ffffffffffffffffffffffffffffffffffffffff168173ffffffffffffffffffffffffffffffffffffffff16036100a4575f6040517f1e4fbdf700000000000000000000000000000000000000000000000000000000815260040161009b9190610267565b60405180910390fd5b6100b38161010e60201b60201c565b506001805f8373ffffffffffffffffffffffffffffffffffffffff1673ffffffffffffffffffffffffffffffffffffffff1681526020019081526020015f205f6101000a81548160ff02191690831515021790555050610280565b5f805f9054906101000a900473ffffffffffffffffffffffffffffffffffffffff169050815f806101000a81548173ffffffffffffffffffffffffffffffffffffffff021916908373ffffffffffffffffffffffffffffffffffffffff1602179055508173ffffffffffffffffffffffffffffffffffffffff168173ffffffffffffffffffffffffffffffffffffffff167f8be0079c531659141344cd1fd0a4f28419497f9722a3daafe3b4186f6b6457e060405160405180910390a35050565b5f80fd5b5f73ffffffffffffffffffffffffffffffffffffffff82169050919050565b5f6101fc826101d3565b9050919050565b61020c816101f2565b8114610216575f80fd5b50565b5f8151905061022781610203565b92915050565b5f60208284031215610242576102416101cf565b5b5f61024f84828501610219565b91505092915050565b610261816101f2565b82525050565b5f60208201905061027a5f830184610258565b92915050565b6109f8806200028e5f395ff3fe608060405234801561000f575f80fd5b5060043610610091575f3560e01c806386785a6f1161006457806386785a6f1461011b5780638da5cb5b14610137578063ead7b5f614610155578063f13eed9714610173578063f2fde38b146101a357610091565b80630588565f146100955780631c39b7d7146100b15780632e948d35146100e1578063715018a614610111575b5f80fd5b6100af60048036038101906100aa9190610740565b6101bf565b005b6100cb60048036038101906100c691906107d4565b61021e565b6040516100d8919061088b565b60405180910390f35b6100fb60048036038101906100f69190610740565b6103e6565b60405161010891906108b3565b60405180910390f35b6101196103fb565b005b61013560048036038101906101309190610740565b61040e565b005b61013f61046d565b60405161014c91906108db565b60405180910390f35b61015d610494565b60405161016a919061090c565b60405180910390f35b61018d60048036038101906101889190610740565b6104b8565b60405161019a919061088b565b60405180910390f35b6101bd60048036038101906101b89190610740565b6104d5565b005b6101c7610559565b6001805f8373ffffffffffffffffffffffffffffffffffffffff1673ffffffffffffffffffffffffffffffffffffffff1681526020019081526020015f205f6101000a81548160ff02191690831515021790555050565b5f60015f8573ffffffffffffffffffffffffffffffffffffffff1673ffffffffffffffffffffffffffffffffffffffff1681526020019081526020015f205f9054906101000a900460ff1661029f576040517f495b5d7c00000000000000000000000000000000000000000000000000000000815260040160405180910390fd5b6102aa8884846105e0565b6102e0576040517f3e78eb9300000000000000000000000000000000000000000000000000000000815260040160405180910390fd5b5f6001898989896040515f81526020016040526040516103039493929190610934565b6020604051602081039080840390855afa158015610323573d5f803e3d5ffd5b5050506020604051035190508473ffffffffffffffffffffffffffffffffffffffff168173ffffffffffffffffffffffffffffffffffffffff1614610394576040517f8baa579f00000000000000000000000000000000000000000000000000000000815260040160405180910390fd5b8860025f3373ffffffffffffffffffffffffffffffffffffffff1673ffffffffffffffffffffffffffffffffffffffff1681526020019081526020015f20819055506001915050979650505050505050565b6002602052805f5260405f205f915090505481565b610403610559565b61040c5f61061a565b565b610416610559565b5f60015f8373ffffffffffffffffffffffffffffffffffffffff1673ffffffffffffffffffffffffffffffffffffffff1681526020019081526020015f205f6101000a81548160ff02191690831515021790555050565b5f805f9054906101000a900473ffffffffffffffffffffffffffffffffffffffff16905090565b7f30644e72e131a029b85045b68181585d2833e84879b9709143e1f593f000000181565b6001602052805f5260405f205f915054906101000a900460ff1681565b6104dd610559565b5f73ffffffffffffffffffffffffffffffffffffffff168173ffffffffffffffffffffffffffffffffffffffff160361054d575f6040517f1e4fbdf700000000000000000000000000000000000000000000000000000000815260040161054491906108db565b60405180910390fd5b6105568161061a565b50565b6105616106db565b73ffffffffffffffffffffffffffffffffffffffff1661057f61046d565b73ffffffffffffffffffffffffffffffffffffffff16146105de576105a26106db565b6040517f118cdaa70000000000000000000000000000000000000000000000000000000081526004016105d591906108db565b60405180910390fd5b565b5f8082846040516020016105f5929190610997565b6040516020818303038152906040528051906020012090508085149150509392505050565b5f805f9054906101000a900473ffffffffffffffffffffffffffffffffffffffff169050815f806101000a81548173ffffffffffffffffffffffffffffffffffffffff021916908373ffffffffffffffffffffffffffffffffffffffff1602179055508173ffffffffffffffffffffffffffffffffffffffff168173ffffffffffffffffffffffffffffffffffffffff167f8be0079c531659141344cd1fd0a4f28419497f9722a3daafe3b4186f6b6457e060405160405180910390a35050565b5f33905090565b5f80fd5b5f73ffffffffffffffffffffffffffffffffffffffff82169050919050565b5f61070f826106e6565b9050919050565b61071f81610705565b8114610729575f80fd5b50565b5f8135905061073a81610716565b92915050565b5f60208284031215610755576107546106e2565b5b5f6107628482850161072c565b91505092915050565b5f819050919050565b61077d8161076b565b8114610787575f80fd5b50565b5f8135905061079881610774565b92915050565b5f60ff82169050919050565b6107b38161079e565b81146107bd575f80fd5b50565b5f813590506107ce816107aa565b92915050565b5f805f805f805f60e0888a0312156107ef576107ee6106e2565b5b5f6107fc8a828b0161078a565b975050602061080d8a828b016107c0565b965050604061081e8a828b0161078a565b955050606061082f8a828b0161078a565b94505060806108408a828b0161072c565b93505060a06108518a828b0161078a565b92505060c06108628a828b0161078a565b91505092959891949750929550565b5f8115159050919050565b61088581610871565b82525050565b5f60208201905061089e5f83018461087c565b92915050565b6108ad8161076b565b82525050565b5f6020820190506108c65f8301846108a4565b92915050565b6108d581610705565b82525050565b5f6020820190506108ee5f8301846108cc565b92915050565b5f819050919050565b610906816108f4565b82525050565b5f60208201905061091f5f8301846108fd565b92915050565b61092e8161079e565b82525050565b5f6080820190506109475f8301876108a4565b6109546020830186610925565b61096160408301856108a4565b61096e60608301846108a4565b95945050505050565b5f819050919050565b61099161098c8261076b565b610977565b82525050565b5f6109a28285610980565b6020820191506109b28284610980565b602082019150819050939250505056fea26469706673582212200487c677b4172d66d540ea2615170744ac4ecc56187f456f8b19d75df04cc2b464736f6c63430008160033",
    "linkReferences": {}
  },
  "methodIdentifiers": {
    "BN254_MODULUS()": "ead7b5f6",
    "addNotary(address)": "0588565f",
    "digests(address)": "2e948d35",
    "isNotary(address)": "f13eed97",
    "owner()": "8da5cb5b",
    "removeNotary(address)": "86785a6f",
    "renounceOwnership()": "715018a6",
    "transferOwnership(address)": "f2fde38b",
    "verifyNotarySignature(bytes32,uint8,bytes32,bytes32,address,bytes32,bytes32)": "1c39b7d7"
  },
  "id": 22
}